{
  "_format": "hh-sol-artifact-1",
  "contractName": "SimpleToken",
  "sourceName": "contracts/core/SimpleToken.sol",
  "abi": [
    {
      "inputs": [
        {
          "internalType": "string",
          "name": "name",
          "type": "string"
        },
        {
          "internalType": "string",
          "name": "symbol",
          "type": "string"
        },
        {
          "internalType": "uint8",
          "name": "decimals_",
          "type": "uint8"
        },
        {
          "internalType": "uint256",
          "name": "initialSupply",
          "type": "uint256"
        },
        {
          "internalType": "address",
          "name": "owner",
          "type": "address"
        }
      ],
      "stateMutability": "nonpayable",
      "type": "constructor"
    },
    {
      "inputs": [],
      "name": "ECDSAInvalidSignature",
      "type": "error"
    },
    {
      "inputs": [
        {
          "internalType": "uint256",
          "name": "length",
          "type": "uint256"
        }
      ],
      "name": "ECDSAInvalidSignatureLength",
      "type": "error"
    },
    {
      "inputs": [
        {
          "internalType": "bytes32",
          "name": "s",
          "type": "bytes32"
        }
      ],
      "name": "ECDSAInvalidSignatureS",
      "type": "error"
    },
    {
      "inputs": [
        {
          "internalType": "address",
          "name": "spender",
          "type": "address"
        },
        {
          "internalType": "uint256",
          "name": "allowance",
          "type": "uint256"
        },
        {
          "internalType": "uint256",
          "name": "needed",
          "type": "uint256"
        }
      ],
      "name": "ERC20InsufficientAllowance",
      "type": "error"
    },
    {
      "inputs": [
        {
          "internalType": "address",
          "name": "sender",
          "type": "address"
        },
        {
          "internalType": "uint256",
          "name": "balance",
          "type": "uint256"
        },
        {
          "internalType": "uint256",
          "name": "needed",
          "type": "uint256"
        }
      ],
      "name": "ERC20InsufficientBalance",
      "type": "error"
    },
    {
      "inputs": [
        {
          "internalType": "address",
          "name": "approver",
          "type": "address"
        }
      ],
      "name": "ERC20InvalidApprover",
      "type": "error"
    },
    {
      "inputs": [
        {
          "internalType": "address",
          "name": "receiver",
          "type": "address"
        }
      ],
      "name": "ERC20InvalidReceiver",
      "type": "error"
    },
    {
      "inputs": [
        {
          "internalType": "address",
          "name": "sender",
          "type": "address"
        }
      ],
      "name": "ERC20InvalidSender",
      "type": "error"
    },
    {
      "inputs": [
        {
          "internalType": "address",
          "name": "spender",
          "type": "address"
        }
      ],
      "name": "ERC20InvalidSpender",
      "type": "error"
    },
    {
      "inputs": [
        {
          "internalType": "uint256",
          "name": "deadline",
          "type": "uint256"
        }
      ],
      "name": "ERC2612ExpiredSignature",
      "type": "error"
    },
    {
      "inputs": [
        {
          "internalType": "address",
          "name": "signer",
          "type": "address"
        },
        {
          "internalType": "address",
          "name": "owner",
          "type": "address"
        }
      ],
      "name": "ERC2612InvalidSigner",
      "type": "error"
    },
    {
      "inputs": [
        {
          "internalType": "address",
          "name": "account",
          "type": "address"
        },
        {
          "internalType": "uint256",
          "name": "currentNonce",
          "type": "uint256"
        }
      ],
      "name": "InvalidAccountNonce",
      "type": "error"
    },
    {
      "inputs": [],
      "name": "InvalidShortString",
      "type": "error"
    },
    {
      "inputs": [
        {
          "internalType": "address",
          "name": "owner",
          "type": "address"
        }
      ],
      "name": "OwnableInvalidOwner",
      "type": "error"
    },
    {
      "inputs": [
        {
          "internalType": "address",
          "name": "account",
          "type": "address"
        }
      ],
      "name": "OwnableUnauthorizedAccount",
      "type": "error"
    },
    {
      "inputs": [
        {
          "internalType": "string",
          "name": "str",
          "type": "string"
        }
      ],
      "name": "StringTooLong",
      "type": "error"
    },
    {
      "anonymous": false,
      "inputs": [
        {
          "indexed": true,
          "internalType": "address",
          "name": "owner",
          "type": "address"
        },
        {
          "indexed": true,
          "internalType": "address",
          "name": "spender",
          "type": "address"
        },
        {
          "indexed": false,
          "internalType": "uint256",
          "name": "value",
          "type": "uint256"
        }
      ],
      "name": "Approval",
      "type": "event"
    },
    {
      "anonymous": false,
      "inputs": [],
      "name": "EIP712DomainChanged",
      "type": "event"
    },
    {
      "anonymous": false,
      "inputs": [
        {
          "indexed": true,
          "internalType": "address",
          "name": "previousOwner",
          "type": "address"
        },
        {
          "indexed": true,
          "internalType": "address",
          "name": "newOwner",
          "type": "address"
        }
      ],
      "name": "OwnershipTransferred",
      "type": "event"
    },
    {
      "anonymous": false,
      "inputs": [
        {
          "indexed": true,
          "internalType": "address",
          "name": "from",
          "type": "address"
        },
        {
          "indexed": true,
          "internalType": "address",
          "name": "to",
          "type": "address"
        },
        {
          "indexed": false,
          "internalType": "uint256",
          "name": "value",
          "type": "uint256"
        }
      ],
      "name": "Transfer",
      "type": "event"
    },
    {
      "inputs": [],
      "name": "DOMAIN_SEPARATOR",
      "outputs": [
        {
          "internalType": "bytes32",
          "name": "",
          "type": "bytes32"
        }
      ],
      "stateMutability": "view",
      "type": "function"
    },
    {
      "inputs": [
        {
          "internalType": "address",
          "name": "owner",
          "type": "address"
        },
        {
          "internalType": "address",
          "name": "spender",
          "type": "address"
        }
      ],
      "name": "allowance",
      "outputs": [
        {
          "internalType": "uint256",
          "name": "",
          "type": "uint256"
        }
      ],
      "stateMutability": "view",
      "type": "function"
    },
    {
      "inputs": [
        {
          "internalType": "address",
          "name": "spender",
          "type": "address"
        },
        {
          "internalType": "uint256",
          "name": "value",
          "type": "uint256"
        }
      ],
      "name": "approve",
      "outputs": [
        {
          "internalType": "bool",
          "name": "",
          "type": "bool"
        }
      ],
      "stateMutability": "nonpayable",
      "type": "function"
    },
    {
      "inputs": [
        {
          "internalType": "address",
          "name": "account",
          "type": "address"
        }
      ],
      "name": "balanceOf",
      "outputs": [
        {
          "internalType": "uint256",
          "name": "",
          "type": "uint256"
        }
      ],
      "stateMutability": "view",
      "type": "function"
    },
    {
      "inputs": [
        {
          "internalType": "uint256",
          "name": "amount",
          "type": "uint256"
        }
      ],
      "name": "burn",
      "outputs": [],
      "stateMutability": "nonpayable",
      "type": "function"
    },
    {
      "inputs": [],
      "name": "decimals",
      "outputs": [
        {
          "internalType": "uint8",
          "name": "",
          "type": "uint8"
        }
      ],
      "stateMutability": "view",
      "type": "function"
    },
    {
      "inputs": [],
      "name": "eip712Domain",
      "outputs": [
        {
          "internalType": "bytes1",
          "name": "fields",
          "type": "bytes1"
        },
        {
          "internalType": "string",
          "name": "name",
          "type": "string"
        },
        {
          "internalType": "string",
          "name": "version",
          "type": "string"
        },
        {
          "internalType": "uint256",
          "name": "chainId",
          "type": "uint256"
        },
        {
          "internalType": "address",
          "name": "verifyingContract",
          "type": "address"
        },
        {
          "internalType": "bytes32",
          "name": "salt",
          "type": "bytes32"
        },
        {
          "internalType": "uint256[]",
          "name": "extensions",
          "type": "uint256[]"
        }
      ],
      "stateMutability": "view",
      "type": "function"
    },
    {
      "inputs": [],
      "name": "getDomainSeparator",
      "outputs": [
        {
          "internalType": "bytes32",
          "name": "",
          "type": "bytes32"
        }
      ],
      "stateMutability": "view",
      "type": "function"
    },
    {
      "inputs": [
        {
          "internalType": "address",
          "name": "owner",
          "type": "address"
        }
      ],
      "name": "getNonce",
      "outputs": [
        {
          "internalType": "uint256",
          "name": "",
          "type": "uint256"
        }
      ],
      "stateMutability": "view",
      "type": "function"
    },
    {
      "inputs": [
        {
          "internalType": "address",
          "name": "to",
          "type": "address"
        },
        {
          "internalType": "uint256",
          "name": "amount",
          "type": "uint256"
        }
      ],
      "name": "mint",
      "outputs": [],
      "stateMutability": "nonpayable",
      "type": "function"
    },
    {
      "inputs": [],
      "name": "name",
      "outputs": [
        {
          "internalType": "string",
          "name": "",
          "type": "string"
        }
      ],
      "stateMutability": "view",
      "type": "function"
    },
    {
      "inputs": [
        {
          "internalType": "address",
          "name": "owner",
          "type": "address"
        }
      ],
      "name": "nonces",
      "outputs": [
        {
          "internalType": "uint256",
          "name": "",
          "type": "uint256"
        }
      ],
      "stateMutability": "view",
      "type": "function"
    },
    {
      "inputs": [],
      "name": "owner",
      "outputs": [
        {
          "internalType": "address",
          "name": "",
          "type": "address"
        }
      ],
      "stateMutability": "view",
      "type": "function"
    },
    {
      "inputs": [
        {
          "internalType": "address",
          "name": "owner",
          "type": "address"
        },
        {
          "internalType": "address",
          "name": "spender",
          "type": "address"
        },
        {
          "internalType": "uint256",
          "name": "value",
          "type": "uint256"
        },
        {
          "internalType": "uint256",
          "name": "deadline",
          "type": "uint256"
        },
        {
          "internalType": "uint8",
          "name": "v",
          "type": "uint8"
        },
        {
          "internalType": "bytes32",
          "name": "r",
          "type": "bytes32"
        },
        {
          "internalType": "bytes32",
          "name": "s",
          "type": "bytes32"
        }
      ],
      "name": "permit",
      "outputs": [],
      "stateMutability": "nonpayable",
      "type": "function"
    },
    {
      "inputs": [],
      "name": "renounceOwnership",
      "outputs": [],
      "stateMutability": "nonpayable",
      "type": "function"
    },
    {
      "inputs": [],
      "name": "symbol",
      "outputs": [
        {
          "internalType": "string",
          "name": "",
          "type": "string"
        }
      ],
      "stateMutability": "view",
      "type": "function"
    },
    {
      "inputs": [],
      "name": "totalSupply",
      "outputs": [
        {
          "internalType": "uint256",
          "name": "",
          "type": "uint256"
        }
      ],
      "stateMutability": "view",
      "type": "function"
    },
    {
      "inputs": [
        {
          "internalType": "address",
          "name": "to",
          "type": "address"
        },
        {
          "internalType": "uint256",
          "name": "value",
          "type": "uint256"
        }
      ],
      "name": "transfer",
      "outputs": [
        {
          "internalType": "bool",
          "name": "",
          "type": "bool"
        }
      ],
      "stateMutability": "nonpayable",
      "type": "function"
    },
    {
      "inputs": [
        {
          "internalType": "address",
          "name": "from",
          "type": "address"
        },
        {
          "internalType": "address",
          "name": "to",
          "type": "address"
        },
        {
          "internalType": "uint256",
          "name": "value",
          "type": "uint256"
        }
      ],
      "name": "transferFrom",
      "outputs": [
        {
          "internalType": "bool",
          "name": "",
          "type": "bool"
        }
      ],
      "stateMutability": "nonpayable",
      "type": "function"
    },
    {
      "inputs": [
        {
          "internalType": "address",
          "name": "newOwner",
          "type": "address"
        }
      ],
      "name": "transferOwnership",
      "outputs": [],
      "stateMutability": "nonpayable",
      "type": "function"
    }
  ],
  "bytecode": "0x61016060405234801561001157600080fd5b506040516131c13803806131c1833981810160405281019061003391906108db565b8085806040518060400160405280600181526020017f31000000000000000000000000000000000000000000000000000000000000008152508888816003908161007d9190610ba5565b50806004908161008d9190610ba5565b5050506100a460058361020960201b90919060201c565b61012081815250506100c060068261020960201b90919060201c565b6101408181525050818051906020012060e08181525050808051906020012061010081815250504660a081815250506100fd61025960201b60201c565b608081815250503073ffffffffffffffffffffffffffffffffffffffff1660c08173ffffffffffffffffffffffffffffffffffffffff1681525050505050600073ffffffffffffffffffffffffffffffffffffffff168173ffffffffffffffffffffffffffffffffffffffff16036101ad5760006040517f1e4fbdf70000000000000000000000000000000000000000000000000000000081526004016101a49190610c86565b60405180910390fd5b6101bc816102b460201b60201c565b5082600860146101000a81548160ff021916908360ff1602179055506101ff8184600a6101e99190610e03565b846101f49190610e4e565b61037a60201b60201c565b5050505050611094565b600060208351101561022b576102248361040260201b60201c565b9050610253565b8261023b8361046a60201b60201c565b600001908161024a9190610ba5565b5060ff60001b90505b92915050565b60007f8b73c3c69bb8fe3d512ecc4cf759cc79239f7b179b0ffacaa9a75d522b39400f60e051610100514630604051602001610299959493929190610eb8565b60405160208183030381529060405280519060200120905090565b6000600860009054906101000a900473ffffffffffffffffffffffffffffffffffffffff16905081600860006101000a81548173ffffffffffffffffffffffffffffffffffffffff021916908373ffffffffffffffffffffffffffffffffffffffff1602179055508173ffffffffffffffffffffffffffffffffffffffff168173ffffffffffffffffffffffffffffffffffffffff167f8be0079c531659141344cd1fd0a4f28419497f9722a3daafe3b4186f6b6457e060405160405180910390a35050565b600073ffffffffffffffffffffffffffffffffffffffff168273ffffffffffffffffffffffffffffffffffffffff16036103ec5760006040517fec442f050000000000000000000000000000000000000000000000000000000081526004016103e39190610c86565b60405180910390fd5b6103fe6000838361047460201b60201c565b5050565b600080829050601f8151111561044f57826040517f305a27a90000000000000000000000000000000000000000000000000000000081526004016104469190610f55565b60405180910390fd5b80518161045b90610fa7565b60001c1760001b915050919050565b6000819050919050565b600073ffffffffffffffffffffffffffffffffffffffff168373ffffffffffffffffffffffffffffffffffffffff16036104c65780600260008282546104ba919061100e565b92505081905550610599565b60008060008573ffffffffffffffffffffffffffffffffffffffff1673ffffffffffffffffffffffffffffffffffffffff16815260200190815260200160002054905081811015610552578381836040517fe450d38c00000000000000000000000000000000000000000000000000000000815260040161054993929190611042565b60405180910390fd5b8181036000808673ffffffffffffffffffffffffffffffffffffffff1673ffffffffffffffffffffffffffffffffffffffff16815260200190815260200160002081905550505b600073ffffffffffffffffffffffffffffffffffffffff168273ffffffffffffffffffffffffffffffffffffffff16036105e2578060026000828254039250508190555061062f565b806000808473ffffffffffffffffffffffffffffffffffffffff1673ffffffffffffffffffffffffffffffffffffffff168152602001908152602001600020600082825401925050819055505b8173ffffffffffffffffffffffffffffffffffffffff168373ffffffffffffffffffffffffffffffffffffffff167fddf252ad1be2c89b69c2b068fc378daa952ba7f163c4a11628f55a4df523b3ef8360405161068c9190611079565b60405180910390a3505050565b6000604051905090565b600080fd5b600080fd5b600080fd5b600080fd5b6000601f19601f8301169050919050565b7f4e487b7100000000000000000000000000000000000000000000000000000000600052604160045260246000fd5b610700826106b7565b810181811067ffffffffffffffff8211171561071f5761071e6106c8565b5b80604052505050565b6000610732610699565b905061073e82826106f7565b919050565b600067ffffffffffffffff82111561075e5761075d6106c8565b5b610767826106b7565b9050602081019050919050565b60005b83811015610792578082015181840152602081019050610777565b60008484015250505050565b60006107b16107ac84610743565b610728565b9050828152602081018484840111156107cd576107cc6106b2565b5b6107d8848285610774565b509392505050565b600082601f8301126107f5576107f46106ad565b5b815161080584826020860161079e565b91505092915050565b600060ff82169050919050565b6108248161080e565b811461082f57600080fd5b50565b6000815190506108418161081b565b92915050565b6000819050919050565b61085a81610847565b811461086557600080fd5b50565b60008151905061087781610851565b92915050565b600073ffffffffffffffffffffffffffffffffffffffff82169050919050565b60006108a88261087d565b9050919050565b6108b88161089d565b81146108c357600080fd5b50565b6000815190506108d5816108af565b92915050565b600080600080600060a086880312156108f7576108f66106a3565b5b600086015167ffffffffffffffff811115610915576109146106a8565b5b610921888289016107e0565b955050602086015167ffffffffffffffff811115610942576109416106a8565b5b61094e888289016107e0565b945050604061095f88828901610832565b935050606061097088828901610868565b9250506080610981888289016108c6565b9150509295509295909350565b600081519050919050565b7f4e487b7100000000000000000000000000000000000000000000000000000000600052602260045260246000fd5b600060028204905060018216806109e057607f821691505b6020821081036109f3576109f2610999565b5b50919050565b60008190508160005260206000209050919050565b60006020601f8301049050919050565b600082821b905092915050565b600060088302610a5b7fffffffffffffffffffffffffffffffffffffffffffffffffffffffffffffffff82610a1e565b610a658683610a1e565b95508019841693508086168417925050509392505050565b6000819050919050565b6000610aa2610a9d610a9884610847565b610a7d565b610847565b9050919050565b6000819050919050565b610abc83610a87565b610ad0610ac882610aa9565b848454610a2b565b825550505050565b600090565b610ae5610ad8565b610af0818484610ab3565b505050565b5b81811015610b1457610b09600082610add565b600181019050610af6565b5050565b601f821115610b5957610b2a816109f9565b610b3384610a0e565b81016020851015610b42578190505b610b56610b4e85610a0e565b830182610af5565b50505b505050565b600082821c905092915050565b6000610b7c60001984600802610b5e565b1980831691505092915050565b6000610b958383610b6b565b9150826002028217905092915050565b610bae8261098e565b67ffffffffffffffff811115610bc757610bc66106c8565b5b610bd182546109c8565b610bdc828285610b18565b600060209050601f831160018114610c0f5760008415610bfd578287015190505b610c078582610b89565b865550610c6f565b601f198416610c1d866109f9565b60005b82811015610c4557848901518255600182019150602085019450602081019050610c20565b86831015610c625784890151610c5e601f891682610b6b565b8355505b6001600288020188555050505b505050505050565b610c808161089d565b82525050565b6000602082019050610c9b6000830184610c77565b92915050565b7f4e487b7100000000000000000000000000000000000000000000000000000000600052601160045260246000fd5b60008160011c9050919050565b6000808291508390505b6001851115610d2757808604811115610d0357610d02610ca1565b5b6001851615610d125780820291505b8081029050610d2085610cd0565b9450610ce7565b94509492505050565b600082610d405760019050610dfc565b81610d4e5760009050610dfc565b8160018114610d645760028114610d6e57610d9d565b6001915050610dfc565b60ff841115610d8057610d7f610ca1565b5b8360020a915084821115610d9757610d96610ca1565b5b50610dfc565b5060208310610133831016604e8410600b8410161715610dd25782820a905083811115610dcd57610dcc610ca1565b5b610dfc565b610ddf8484846001610cdd565b92509050818404811115610df657610df5610ca1565b5b81810290505b9392505050565b6000610e0e82610847565b9150610e198361080e565b9250610e467fffffffffffffffffffffffffffffffffffffffffffffffffffffffffffffffff8484610d30565b905092915050565b6000610e5982610847565b9150610e6483610847565b9250828202610e7281610847565b91508282048414831517610e8957610e88610ca1565b5b5092915050565b6000819050919050565b610ea381610e90565b82525050565b610eb281610847565b82525050565b600060a082019050610ecd6000830188610e9a565b610eda6020830187610e9a565b610ee76040830186610e9a565b610ef46060830185610ea9565b610f016080830184610c77565b9695505050505050565b600082825260208201905092915050565b6000610f278261098e565b610f318185610f0b565b9350610f41818560208601610774565b610f4a816106b7565b840191505092915050565b60006020820190508181036000830152610f6f8184610f1c565b905092915050565b600081519050919050565b6000819050602082019050919050565b6000610f9e8251610e90565b80915050919050565b6000610fb282610f77565b82610fbc84610f82565b9050610fc781610f92565b92506020821015611007576110027fffffffffffffffffffffffffffffffffffffffffffffffffffffffffffffffff83602003600802610a1e565b831692505b5050919050565b600061101982610847565b915061102483610847565b925082820190508082111561103c5761103b610ca1565b5b92915050565b60006060820190506110576000830186610c77565b6110646020830185610ea9565b6110716040830184610ea9565b949350505050565b600060208201905061108e6000830184610ea9565b92915050565b60805160a05160c05160e0516101005161012051610140516120d36110ee6000396000610ecd01526000610e92015260006113e2015260006113c101526000610b3c01526000610b9201526000610bbb01526120d36000f3fe608060405234801561001057600080fd5b506004361061012c5760003560e01c8063715018a6116100ad578063a9059cbb11610071578063a9059cbb1461033b578063d505accf1461036b578063dd62ed3e14610387578063ed24911d146103b7578063f2fde38b146103d55761012c565b8063715018a6146102a15780637ecebe00146102ab57806384b0196e146102db5780638da5cb5b146102ff57806395d89b411461031d5761012c565b8063313ce567116100f4578063313ce567146101fd5780633644e5151461021b57806340c10f191461023957806342966c681461025557806370a08231146102715761012c565b806306fdde0314610131578063095ea7b31461014f57806318160ddd1461017f57806323b872dd1461019d5780632d0335ab146101cd575b600080fd5b6101396103f1565b60405161014691906118cf565b60405180910390f35b6101696004803603810190610164919061198a565b610483565b60405161017691906119e5565b60405180910390f35b6101876104a6565b6040516101949190611a0f565b60405180910390f35b6101b760048036038101906101b29190611a2a565b6104b0565b6040516101c491906119e5565b60405180910390f35b6101e760048036038101906101e29190611a7d565b6104df565b6040516101f49190611a0f565b60405180910390f35b6102056104f1565b6040516102129190611ac6565b60405180910390f35b610223610508565b6040516102309190611afa565b60405180910390f35b610253600480360381019061024e919061198a565b610517565b005b61026f600480360381019061026a9190611b15565b61052d565b005b61028b60048036038101906102869190611a7d565b61053a565b6040516102989190611a0f565b60405180910390f35b6102a9610582565b005b6102c560048036038101906102c09190611a7d565b610596565b6040516102d29190611a0f565b60405180910390f35b6102e36105a8565b6040516102f69796959493929190611c4a565b60405180910390f35b610307610652565b6040516103149190611cce565b60405180910390f35b61032561067c565b60405161033291906118cf565b60405180910390f35b6103556004803603810190610350919061198a565b61070e565b60405161036291906119e5565b60405180910390f35b61038560048036038101906103809190611d41565b610731565b005b6103a1600480360381019061039c9190611de3565b610879565b6040516103ae9190611a0f565b60405180910390f35b6103bf610900565b6040516103cc9190611afa565b60405180910390f35b6103ef60048036038101906103ea9190611a7d565b61090f565b005b60606003805461040090611e52565b80601f016020809104026020016040519081016040528092919081815260200182805461042c90611e52565b80156104795780601f1061044e57610100808354040283529160200191610479565b820191906000526020600020905b81548152906001019060200180831161045c57829003601f168201915b5050505050905090565b60008061048e610995565b905061049b81858561099d565b600191505092915050565b6000600254905090565b6000806104bb610995565b90506104c88582856109af565b6104d3858585610a44565b60019150509392505050565b60006104ea82610596565b9050919050565b6000600860149054906101000a900460ff16905090565b6000610512610b38565b905090565b61051f610bef565b6105298282610c76565b5050565b6105373382610cf8565b50565b60008060008373ffffffffffffffffffffffffffffffffffffffff1673ffffffffffffffffffffffffffffffffffffffff168152602001908152602001600020549050919050565b61058a610bef565b6105946000610d7a565b565b60006105a182610e40565b9050919050565b6000606080600080600060606105bc610e89565b6105c4610ec4565b46306000801b600067ffffffffffffffff8111156105e5576105e4611e83565b5b6040519080825280602002602001820160405280156106135781602001602082028036833780820191505090505b507f0f00000000000000000000000000000000000000000000000000000000000000959493929190965096509650965096509650965090919293949596565b6000600860009054906101000a900473ffffffffffffffffffffffffffffffffffffffff16905090565b60606004805461068b90611e52565b80601f01602080910402602001604051908101604052809291908181526020018280546106b790611e52565b80156107045780601f106106d957610100808354040283529160200191610704565b820191906000526020600020905b8154815290600101906020018083116106e757829003601f168201915b5050505050905090565b600080610719610995565b9050610726818585610a44565b600191505092915050565b8342111561077657836040517f6279130200000000000000000000000000000000000000000000000000000000815260040161076d9190611a0f565b60405180910390fd5b60007f6e71edae12b1b97f4d1f60370fef10105fa2faae0126114a169c64845d6126c98888886107a58c610eff565b896040516020016107bb96959493929190611eb2565b60405160208183030381529060405280519060200120905060006107de82610f56565b905060006107ee82878787610f70565b90508973ffffffffffffffffffffffffffffffffffffffff168173ffffffffffffffffffffffffffffffffffffffff161461086257808a6040517f4b800e46000000000000000000000000000000000000000000000000000000008152600401610859929190611f13565b60405180910390fd5b61086d8a8a8a61099d565b50505050505050505050565b6000600160008473ffffffffffffffffffffffffffffffffffffffff1673ffffffffffffffffffffffffffffffffffffffff16815260200190815260200160002060008373ffffffffffffffffffffffffffffffffffffffff1673ffffffffffffffffffffffffffffffffffffffff16815260200190815260200160002054905092915050565b600061090a610b38565b905090565b610917610bef565b600073ffffffffffffffffffffffffffffffffffffffff168173ffffffffffffffffffffffffffffffffffffffff16036109895760006040517f1e4fbdf70000000000000000000000000000000000000000000000000000000081526004016109809190611cce565b60405180910390fd5b61099281610d7a565b50565b600033905090565b6109aa8383836001610fa0565b505050565b60006109bb8484610879565b90507fffffffffffffffffffffffffffffffffffffffffffffffffffffffffffffffff811015610a3e5781811015610a2e578281836040517ffb8f41b2000000000000000000000000000000000000000000000000000000008152600401610a2593929190611f3c565b60405180910390fd5b610a3d84848484036000610fa0565b5b50505050565b600073ffffffffffffffffffffffffffffffffffffffff168373ffffffffffffffffffffffffffffffffffffffff1603610ab65760006040517f96c6fd1e000000000000000000000000000000000000000000000000000000008152600401610aad9190611cce565b60405180910390fd5b600073ffffffffffffffffffffffffffffffffffffffff168273ffffffffffffffffffffffffffffffffffffffff1603610b285760006040517fec442f05000000000000000000000000000000000000000000000000000000008152600401610b1f9190611cce565b60405180910390fd5b610b33838383611177565b505050565b60007f000000000000000000000000000000000000000000000000000000000000000073ffffffffffffffffffffffffffffffffffffffff163073ffffffffffffffffffffffffffffffffffffffff16148015610bb457507f000000000000000000000000000000000000000000000000000000000000000046145b15610be1577f00000000000000000000000000000000000000000000000000000000000000009050610bec565b610be961139c565b90505b90565b610bf7610995565b73ffffffffffffffffffffffffffffffffffffffff16610c15610652565b73ffffffffffffffffffffffffffffffffffffffff1614610c7457610c38610995565b6040517f118cdaa7000000000000000000000000000000000000000000000000000000008152600401610c6b9190611cce565b60405180910390fd5b565b600073ffffffffffffffffffffffffffffffffffffffff168273ffffffffffffffffffffffffffffffffffffffff1603610ce85760006040517fec442f05000000000000000000000000000000000000000000000000000000008152600401610cdf9190611cce565b60405180910390fd5b610cf460008383611177565b5050565b600073ffffffffffffffffffffffffffffffffffffffff168273ffffffffffffffffffffffffffffffffffffffff1603610d6a5760006040517f96c6fd1e000000000000000000000000000000000000000000000000000000008152600401610d619190611cce565b60405180910390fd5b610d7682600083611177565b5050565b6000600860009054906101000a900473ffffffffffffffffffffffffffffffffffffffff16905081600860006101000a81548173ffffffffffffffffffffffffffffffffffffffff021916908373ffffffffffffffffffffffffffffffffffffffff1602179055508173ffffffffffffffffffffffffffffffffffffffff168173ffffffffffffffffffffffffffffffffffffffff167f8be0079c531659141344cd1fd0a4f28419497f9722a3daafe3b4186f6b6457e060405160405180910390a35050565b6000600760008373ffffffffffffffffffffffffffffffffffffffff1673ffffffffffffffffffffffffffffffffffffffff168152602001908152602001600020549050919050565b6060610ebf60057f000000000000000000000000000000000000000000000000000000000000000061143290919063ffffffff16565b905090565b6060610efa60067f000000000000000000000000000000000000000000000000000000000000000061143290919063ffffffff16565b905090565b6000600760008373ffffffffffffffffffffffffffffffffffffffff1673ffffffffffffffffffffffffffffffffffffffff1681526020019081526020016000206000815480929190600101919050559050919050565b6000610f69610f63610b38565b836114e2565b9050919050565b600080600080610f8288888888611523565b925092509250610f928282611617565b829350505050949350505050565b600073ffffffffffffffffffffffffffffffffffffffff168473ffffffffffffffffffffffffffffffffffffffff16036110125760006040517fe602df050000000000000000000000000000000000000000000000000000000081526004016110099190611cce565b60405180910390fd5b600073ffffffffffffffffffffffffffffffffffffffff168373ffffffffffffffffffffffffffffffffffffffff16036110845760006040517f94280d6200000000000000000000000000000000000000000000000000000000815260040161107b9190611cce565b60405180910390fd5b81600160008673ffffffffffffffffffffffffffffffffffffffff1673ffffffffffffffffffffffffffffffffffffffff16815260200190815260200160002060008573ffffffffffffffffffffffffffffffffffffffff1673ffffffffffffffffffffffffffffffffffffffff168152602001908152602001600020819055508015611171578273ffffffffffffffffffffffffffffffffffffffff168473ffffffffffffffffffffffffffffffffffffffff167f8c5be1e5ebec7d5bd14f71427d1e84f3dd0314c0f7b2291e5b200ac8c7c3b925846040516111689190611a0f565b60405180910390a35b50505050565b600073ffffffffffffffffffffffffffffffffffffffff168373ffffffffffffffffffffffffffffffffffffffff16036111c95780600260008282546111bd9190611fa2565b9250508190555061129c565b60008060008573ffffffffffffffffffffffffffffffffffffffff1673ffffffffffffffffffffffffffffffffffffffff16815260200190815260200160002054905081811015611255578381836040517fe450d38c00000000000000000000000000000000000000000000000000000000815260040161124c93929190611f3c565b60405180910390fd5b8181036000808673ffffffffffffffffffffffffffffffffffffffff1673ffffffffffffffffffffffffffffffffffffffff16815260200190815260200160002081905550505b600073ffffffffffffffffffffffffffffffffffffffff168273ffffffffffffffffffffffffffffffffffffffff16036112e55780600260008282540392505081905550611332565b806000808473ffffffffffffffffffffffffffffffffffffffff1673ffffffffffffffffffffffffffffffffffffffff168152602001908152602001600020600082825401925050819055505b8173ffffffffffffffffffffffffffffffffffffffff168373ffffffffffffffffffffffffffffffffffffffff167fddf252ad1be2c89b69c2b068fc378daa952ba7f163c4a11628f55a4df523b3ef8360405161138f9190611a0f565b60405180910390a3505050565b60007f8b73c3c69bb8fe3d512ecc4cf759cc79239f7b179b0ffacaa9a75d522b39400f7f00000000000000000000000000000000000000000000000000000000000000007f00000000000000000000000000000000000000000000000000000000000000004630604051602001611417959493929190611fd6565b60405160208183030381529060405280519060200120905090565b606060ff60001b831461144f576114488361177b565b90506114dc565b81805461145b90611e52565b80601f016020809104026020016040519081016040528092919081815260200182805461148790611e52565b80156114d45780601f106114a9576101008083540402835291602001916114d4565b820191906000526020600020905b8154815290600101906020018083116114b757829003601f168201915b505050505090505b92915050565b60006040517f190100000000000000000000000000000000000000000000000000000000000081528360028201528260228201526042812091505092915050565b60008060007f7fffffffffffffffffffffffffffffff5d576e7357a4501ddfe92f46681b20a08460001c111561156357600060038592509250925061160d565b6000600188888888604051600081526020016040526040516115889493929190612029565b6020604051602081039080840390855afa1580156115aa573d6000803e3d6000fd5b505050602060405103519050600073ffffffffffffffffffffffffffffffffffffffff168173ffffffffffffffffffffffffffffffffffffffff16036115fe57600060016000801b9350935093505061160d565b8060008060001b935093509350505b9450945094915050565b6000600381111561162b5761162a61206e565b5b82600381111561163e5761163d61206e565b5b031561177757600160038111156116585761165761206e565b5b82600381111561166b5761166a61206e565b5b036116a2576040517ff645eedf00000000000000000000000000000000000000000000000000000000815260040160405180910390fd5b600260038111156116b6576116b561206e565b5b8260038111156116c9576116c861206e565b5b0361170e578060001c6040517ffce698f70000000000000000000000000000000000000000000000000000000081526004016117059190611a0f565b60405180910390fd5b6003808111156117215761172061206e565b5b8260038111156117345761173361206e565b5b0361177657806040517fd78bce0c00000000000000000000000000000000000000000000000000000000815260040161176d9190611afa565b60405180910390fd5b5b5050565b60606000611788836117ef565b90506000602067ffffffffffffffff8111156117a7576117a6611e83565b5b6040519080825280601f01601f1916602001820160405280156117d95781602001600182028036833780820191505090505b5090508181528360208201528092505050919050565b60008060ff8360001c169050601f811115611836576040517fb3512b0c00000000000000000000000000000000000000000000000000000000815260040160405180910390fd5b80915050919050565b600081519050919050565b600082825260208201905092915050565b60005b8381101561187957808201518184015260208101905061185e565b60008484015250505050565b6000601f19601f8301169050919050565b60006118a18261183f565b6118ab818561184a565b93506118bb81856020860161185b565b6118c481611885565b840191505092915050565b600060208201905081810360008301526118e98184611896565b905092915050565b600080fd5b600073ffffffffffffffffffffffffffffffffffffffff82169050919050565b6000611921826118f6565b9050919050565b61193181611916565b811461193c57600080fd5b50565b60008135905061194e81611928565b92915050565b6000819050919050565b61196781611954565b811461197257600080fd5b50565b6000813590506119848161195e565b92915050565b600080604083850312156119a1576119a06118f1565b5b60006119af8582860161193f565b92505060206119c085828601611975565b9150509250929050565b60008115159050919050565b6119df816119ca565b82525050565b60006020820190506119fa60008301846119d6565b92915050565b611a0981611954565b82525050565b6000602082019050611a246000830184611a00565b92915050565b600080600060608486031215611a4357611a426118f1565b5b6000611a518682870161193f565b9350506020611a628682870161193f565b9250506040611a7386828701611975565b9150509250925092565b600060208284031215611a9357611a926118f1565b5b6000611aa18482850161193f565b91505092915050565b600060ff82169050919050565b611ac081611aaa565b82525050565b6000602082019050611adb6000830184611ab7565b92915050565b6000819050919050565b611af481611ae1565b82525050565b6000602082019050611b0f6000830184611aeb565b92915050565b600060208284031215611b2b57611b2a6118f1565b5b6000611b3984828501611975565b91505092915050565b60007fff0000000000000000000000000000000000000000000000000000000000000082169050919050565b611b7781611b42565b82525050565b611b8681611916565b82525050565b600081519050919050565b600082825260208201905092915050565b6000819050602082019050919050565b611bc181611954565b82525050565b6000611bd38383611bb8565b60208301905092915050565b6000602082019050919050565b6000611bf782611b8c565b611c018185611b97565b9350611c0c83611ba8565b8060005b83811015611c3d578151611c248882611bc7565b9750611c2f83611bdf565b925050600181019050611c10565b5085935050505092915050565b600060e082019050611c5f600083018a611b6e565b8181036020830152611c718189611896565b90508181036040830152611c858188611896565b9050611c946060830187611a00565b611ca16080830186611b7d565b611cae60a0830185611aeb565b81810360c0830152611cc08184611bec565b905098975050505050505050565b6000602082019050611ce36000830184611b7d565b92915050565b611cf281611aaa565b8114611cfd57600080fd5b50565b600081359050611d0f81611ce9565b92915050565b611d1e81611ae1565b8114611d2957600080fd5b50565b600081359050611d3b81611d15565b92915050565b600080600080600080600060e0888a031215611d6057611d5f6118f1565b5b6000611d6e8a828b0161193f565b9750506020611d7f8a828b0161193f565b9650506040611d908a828b01611975565b9550506060611da18a828b01611975565b9450506080611db28a828b01611d00565b93505060a0611dc38a828b01611d2c565b92505060c0611dd48a828b01611d2c565b91505092959891949750929550565b60008060408385031215611dfa57611df96118f1565b5b6000611e088582860161193f565b9250506020611e198582860161193f565b9150509250929050565b7f4e487b7100000000000000000000000000000000000000000000000000000000600052602260045260246000fd5b60006002820490506001821680611e6a57607f821691505b602082108103611e7d57611e7c611e23565b5b50919050565b7f4e487b7100000000000000000000000000000000000000000000000000000000600052604160045260246000fd5b600060c082019050611ec76000830189611aeb565b611ed46020830188611b7d565b611ee16040830187611b7d565b611eee6060830186611a00565b611efb6080830185611a00565b611f0860a0830184611a00565b979650505050505050565b6000604082019050611f286000830185611b7d565b611f356020830184611b7d565b9392505050565b6000606082019050611f516000830186611b7d565b611f5e6020830185611a00565b611f6b6040830184611a00565b949350505050565b7f4e487b7100000000000000000000000000000000000000000000000000000000600052601160045260246000fd5b6000611fad82611954565b9150611fb883611954565b9250828201905080821115611fd057611fcf611f73565b5b92915050565b600060a082019050611feb6000830188611aeb565b611ff86020830187611aeb565b6120056040830186611aeb565b6120126060830185611a00565b61201f6080830184611b7d565b9695505050505050565b600060808201905061203e6000830187611aeb565b61204b6020830186611ab7565b6120586040830185611aeb565b6120656060830184611aeb565b95945050505050565b7f4e487b7100000000000000000000000000000000000000000000000000000000600052602160045260246000fdfea26469706673582212205c16ac48bfcc4d40b5154e3f5b075b71c7c10292399578ffc3270b1121a13b9264736f6c634300081c0033",
  "linkReferences": {},
  "deployedLinkReferences": {}
}